{
  "_format": "hh-sol-artifact-1",
  "contractName": "DocumentAgreement",
  "sourceName": "contracts/DocumentAgreement.sol",
  "abi": [
    {
      "inputs": [
        {
          "internalType": "uint256",
          "name": "_documentPrice",
          "type": "uint256"
        }
      ],
      "stateMutability": "nonpayable",
      "type": "constructor"
    },
    {
      "anonymous": false,
      "inputs": [
        {
          "indexed": false,
          "internalType": "address",
          "name": "buyer",
          "type": "address"
        },
        {
          "indexed": false,
          "internalType": "uint256",
          "name": "documentId",
          "type": "uint256"
        }
      ],
      "name": "DocumentPurchased",
      "type": "event"
    },
    {
      "inputs": [],
      "name": "documentPrice",
      "outputs": [
        {
          "internalType": "uint256",
          "name": "",
          "type": "uint256"
        }
      ],
      "stateMutability": "view",
      "type": "function"
    },
    {
      "inputs": [
        {
          "internalType": "uint256",
          "name": "",
          "type": "uint256"
        }
      ],
      "name": "documents",
      "outputs": [
        {
          "internalType": "address",
          "name": "owner",
          "type": "address"
        },
        {
          "internalType": "string",
          "name": "documentHash",
          "type": "string"
        },
        {
          "internalType": "string",
          "name": "terms",
          "type": "string"
        }
      ],
      "stateMutability": "view",
      "type": "function"
    },
    {
      "inputs": [
        {
          "internalType": "uint256",
          "name": "documentId",
          "type": "uint256"
        }
      ],
      "name": "getDocumentDetails",
      "outputs": [
        {
          "components": [
            {
              "internalType": "address",
              "name": "owner",
              "type": "address"
            },
            {
              "internalType": "string",
              "name": "documentHash",
              "type": "string"
            },
            {
              "internalType": "string",
              "name": "terms",
              "type": "string"
            }
          ],
          "internalType": "struct DocumentAgreement.Document",
          "name": "",
          "type": "tuple"
        }
      ],
      "stateMutability": "view",
      "type": "function"
    },
    {
      "inputs": [],
      "name": "owner",
      "outputs": [
        {
          "internalType": "address",
          "name": "",
          "type": "address"
        }
      ],
      "stateMutability": "view",
      "type": "function"
    },
    {
      "inputs": [
        {
          "internalType": "uint256",
          "name": "documentId",
          "type": "uint256"
        }
      ],
      "name": "purchaseDocument",
      "outputs": [],
      "stateMutability": "payable",
      "type": "function"
    },
    {
      "inputs": [
        {
          "internalType": "string",
          "name": "documentHash",
          "type": "string"
        },
        {
          "internalType": "string",
          "name": "terms",
          "type": "string"
        }
      ],
      "name": "uploadDocument",
      "outputs": [],
      "stateMutability": "nonpayable",
      "type": "function"
    },
    {
      "inputs": [
        {
          "internalType": "address",
          "name": "",
          "type": "address"
        }
      ],
      "name": "userPurchases",
      "outputs": [
        {
          "internalType": "uint256",
          "name": "",
          "type": "uint256"
        }
      ],
      "stateMutability": "view",
      "type": "function"
    }
  ],
  "bytecode": "0x60806040523480156200001157600080fd5b50604051620014dc380380620014dc8339818101604052810190620000379190620000c5565b336000806101000a81548173ffffffffffffffffffffffffffffffffffffffff021916908373ffffffffffffffffffffffffffffffffffffffff1602179055508060018190555050620000f7565b600080fd5b6000819050919050565b6200009f816200008a565b8114620000ab57600080fd5b50565b600081519050620000bf8162000094565b92915050565b600060208284031215620000de57620000dd62000085565b5b6000620000ee84828501620000ae565b91505092915050565b6113d580620001076000396000f3fe6080604052600436106100705760003560e01c806380ede3291161004e57806380ede329146100f75780638da5cb5b14610134578063c2ed2b051461015f578063e1adbbd81461019e57610070565b806339f65c0914610075578063404f80e6146100b25780634464fe33146100ce575b600080fd5b34801561008157600080fd5b5061009c600480360381019061009791906109de565b6101c9565b6040516100a99190610a24565b60405180910390f35b6100cc60048036038101906100c79190610a6b565b6101e1565b005b3480156100da57600080fd5b506100f560048036038101906100f09190610bde565b610474565b005b34801561010357600080fd5b5061011e60048036038101906101199190610a6b565b610563565b60405161012b9190610d3b565b60405180910390f35b34801561014057600080fd5b506101496107b1565b6040516101569190610d6c565b60405180910390f35b34801561016b57600080fd5b5061018660048036038101906101819190610a6b565b6107d5565b60405161019593929190610dd1565b60405180910390f35b3480156101aa57600080fd5b506101b361092f565b6040516101c09190610a24565b60405180910390f35b60036020528060005260406000206000915090505481565b80600073ffffffffffffffffffffffffffffffffffffffff166002600083815260200190815260200160002060000160009054906101000a900473ffffffffffffffffffffffffffffffffffffffff1673ffffffffffffffffffffffffffffffffffffffff1603610287576040517f08c379a000000000000000000000000000000000000000000000000000000000815260040161027e90610e62565b60405180910390fd5b813373ffffffffffffffffffffffffffffffffffffffff166002600083815260200190815260200160002060000160009054906101000a900473ffffffffffffffffffffffffffffffffffffffff1673ffffffffffffffffffffffffffffffffffffffff160361032c576040517f08c379a000000000000000000000000000000000000000000000000000000000815260040161032390610ece565b60405180910390fd5b6000600360003373ffffffffffffffffffffffffffffffffffffffff1673ffffffffffffffffffffffffffffffffffffffff16815260200190815260200160002054146103ae576040517f08c379a00000000000000000000000000000000000000000000000000000000081526004016103a590610f60565b60405180910390fd5b60015434146103f2576040517f08c379a00000000000000000000000000000000000000000000000000000000081526004016103e990610fcc565b60405180910390fd5b82600360003373ffffffffffffffffffffffffffffffffffffffff1673ffffffffffffffffffffffffffffffffffffffff168152602001908152602001600020819055507f427738bf0825a1aafd94f53f22e58b04b0ca74258717484036a1a8ea662add063384604051610467929190610fec565b60405180910390a1505050565b60003383604051602001610489929190611099565b6040516020818303038152906040528051906020012060001c905060405180606001604052803373ffffffffffffffffffffffffffffffffffffffff168152602001848152602001838152506002600083815260200190815260200160002060008201518160000160006101000a81548173ffffffffffffffffffffffffffffffffffffffff021916908373ffffffffffffffffffffffffffffffffffffffff160217905550602082015181600101908161054491906112cd565b50604082015181600201908161055a91906112cd565b50905050505050565b61056b610935565b81600073ffffffffffffffffffffffffffffffffffffffff166002600083815260200190815260200160002060000160009054906101000a900473ffffffffffffffffffffffffffffffffffffffff1673ffffffffffffffffffffffffffffffffffffffff1603610611576040517f08c379a000000000000000000000000000000000000000000000000000000000815260040161060890610e62565b60405180910390fd5b600260008481526020019081526020016000206040518060600160405290816000820160009054906101000a900473ffffffffffffffffffffffffffffffffffffffff1673ffffffffffffffffffffffffffffffffffffffff1673ffffffffffffffffffffffffffffffffffffffff168152602001600182018054610695906110f0565b80601f01602080910402602001604051908101604052809291908181526020018280546106c1906110f0565b801561070e5780601f106106e35761010080835404028352916020019161070e565b820191906000526020600020905b8154815290600101906020018083116106f157829003601f168201915b50505050508152602001600282018054610727906110f0565b80601f0160208091040260200160405190810160405280929190818152602001828054610753906110f0565b80156107a05780601f10610775576101008083540402835291602001916107a0565b820191906000526020600020905b81548152906001019060200180831161078357829003601f168201915b505050505081525050915050919050565b60008054906101000a900473ffffffffffffffffffffffffffffffffffffffff1681565b60026020528060005260406000206000915090508060000160009054906101000a900473ffffffffffffffffffffffffffffffffffffffff169080600101805461081e906110f0565b80601f016020809104026020016040519081016040528092919081815260200182805461084a906110f0565b80156108975780601f1061086c57610100808354040283529160200191610897565b820191906000526020600020905b81548152906001019060200180831161087a57829003601f168201915b5050505050908060020180546108ac906110f0565b80601f01602080910402602001604051908101604052809291908181526020018280546108d8906110f0565b80156109255780601f106108fa57610100808354040283529160200191610925565b820191906000526020600020905b81548152906001019060200180831161090857829003601f168201915b5050505050905083565b60015481565b6040518060600160405280600073ffffffffffffffffffffffffffffffffffffffff16815260200160608152602001606081525090565b6000604051905090565b600080fd5b600080fd5b600073ffffffffffffffffffffffffffffffffffffffff82169050919050565b60006109ab82610980565b9050919050565b6109bb816109a0565b81146109c657600080fd5b50565b6000813590506109d8816109b2565b92915050565b6000602082840312156109f4576109f3610976565b5b6000610a02848285016109c9565b91505092915050565b6000819050919050565b610a1e81610a0b565b82525050565b6000602082019050610a396000830184610a15565b92915050565b610a4881610a0b565b8114610a5357600080fd5b50565b600081359050610a6581610a3f565b92915050565b600060208284031215610a8157610a80610976565b5b6000610a8f84828501610a56565b91505092915050565b600080fd5b600080fd5b6000601f19601f8301169050919050565b7f4e487b7100000000000000000000000000000000000000000000000000000000600052604160045260246000fd5b610aeb82610aa2565b810181811067ffffffffffffffff82111715610b0a57610b09610ab3565b5b80604052505050565b6000610b1d61096c565b9050610b298282610ae2565b919050565b600067ffffffffffffffff821115610b4957610b48610ab3565b5b610b5282610aa2565b9050602081019050919050565b82818337600083830152505050565b6000610b81610b7c84610b2e565b610b13565b905082815260208101848484011115610b9d57610b9c610a9d565b5b610ba8848285610b5f565b509392505050565b600082601f830112610bc557610bc4610a98565b5b8135610bd5848260208601610b6e565b91505092915050565b60008060408385031215610bf557610bf4610976565b5b600083013567ffffffffffffffff811115610c1357610c1261097b565b5b610c1f85828601610bb0565b925050602083013567ffffffffffffffff811115610c4057610c3f61097b565b5b610c4c85828601610bb0565b9150509250929050565b610c5f816109a0565b82525050565b600081519050919050565b600082825260208201905092915050565b60005b83811015610c9f578082015181840152602081019050610c84565b60008484015250505050565b6000610cb682610c65565b610cc08185610c70565b9350610cd0818560208601610c81565b610cd981610aa2565b840191505092915050565b6000606083016000830151610cfc6000860182610c56565b5060208301518482036020860152610d148282610cab565b91505060408301518482036040860152610d2e8282610cab565b9150508091505092915050565b60006020820190508181036000830152610d558184610ce4565b905092915050565b610d66816109a0565b82525050565b6000602082019050610d816000830184610d5d565b92915050565b600082825260208201905092915050565b6000610da382610c65565b610dad8185610d87565b9350610dbd818560208601610c81565b610dc681610aa2565b840191505092915050565b6000606082019050610de66000830186610d5d565b8181036020830152610df88185610d98565b90508181036040830152610e0c8184610d98565b9050949350505050565b7f446f63756d656e7420646f6573206e6f74206578697374000000000000000000600082015250565b6000610e4c601783610d87565b9150610e5782610e16565b602082019050919050565b60006020820190508181036000830152610e7b81610e3f565b9050919050565b7f596f752063616e6e6f742062757920796f7572206f776e20646f63756d656e74600082015250565b6000610eb8602083610d87565b9150610ec382610e82565b602082019050919050565b60006020820190508181036000830152610ee781610eab565b9050919050565b7f596f75206861766520616c726561647920707572636861736564206120646f6360008201527f756d656e74000000000000000000000000000000000000000000000000000000602082015250565b6000610f4a602583610d87565b9150610f5582610eee565b604082019050919050565b60006020820190508181036000830152610f7981610f3d565b9050919050565b7f496e636f7272656374207061796d656e7420616d6f756e740000000000000000600082015250565b6000610fb6601883610d87565b9150610fc182610f80565b602082019050919050565b60006020820190508181036000830152610fe581610fa9565b9050919050565b60006040820190506110016000830185610d5d565b61100e6020830184610a15565b9392505050565b60008160601b9050919050565b600061102d82611015565b9050919050565b600061103f82611022565b9050919050565b611057611052826109a0565b611034565b82525050565b600081905092915050565b600061107382610c65565b61107d818561105d565b935061108d818560208601610c81565b80840191505092915050565b60006110a58285611046565b6014820191506110b58284611068565b91508190509392505050565b7f4e487b7100000000000000000000000000000000000000000000000000000000600052602260045260246000fd5b6000600282049050600182168061110857607f821691505b60208210810361111b5761111a6110c1565b5b50919050565b60008190508160005260206000209050919050565b60006020601f8301049050919050565b600082821b905092915050565b6000600883026111837fffffffffffffffffffffffffffffffffffffffffffffffffffffffffffffffff82611146565b61118d8683611146565b95508019841693508086168417925050509392505050565b6000819050919050565b60006111ca6111c56111c084610a0b565b6111a5565b610a0b565b9050919050565b6000819050919050565b6111e4836111af565b6111f86111f0826111d1565b848454611153565b825550505050565b600090565b61120d611200565b6112188184846111db565b505050565b5b8181101561123c57611231600082611205565b60018101905061121e565b5050565b601f8211156112815761125281611121565b61125b84611136565b8101602085101561126a578190505b61127e61127685611136565b83018261121d565b50505b505050565b600082821c905092915050565b60006112a460001984600802611286565b1980831691505092915050565b60006112bd8383611293565b9150826002028217905092915050565b6112d682610c65565b67ffffffffffffffff8111156112ef576112ee610ab3565b5b6112f982546110f0565b611304828285611240565b600060209050601f8311600181146113375760008415611325578287015190505b61132f85826112b1565b865550611397565b601f19841661134586611121565b60005b8281101561136d57848901518255600182019150602085019450602081019050611348565b8683101561138a5784890151611386601f891682611293565b8355505b6001600288020188555050505b50505050505056fea2646970667358221220cd21cbd33416bcf9324ab2cb9cb118372b256a16538d21a0b67fec0c4ad985eb64736f6c63430008130033",
  "linkReferences": {},
  "deployedLinkReferences": {}
}